{
  "_format": "hh-sol-artifact-1",
  "contractName": "IdentityVerification",
  "sourceName": "contracts/IdentityVerification.sol",
  "abi": [
    {
      "inputs": [
        {
          "internalType": "address",
          "name": "initialOwner",
          "type": "address"
        }
      ],
      "stateMutability": "nonpayable",
      "type": "constructor"
    },
    {
      "inputs": [
        {
          "internalType": "address",
          "name": "owner",
          "type": "address"
        }
      ],
      "name": "OwnableInvalidOwner",
      "type": "error"
    },
    {
      "inputs": [
        {
          "internalType": "address",
          "name": "account",
          "type": "address"
        }
      ],
      "name": "OwnableUnauthorizedAccount",
      "type": "error"
    },
    {
      "anonymous": false,
      "inputs": [
        {
          "indexed": true,
          "internalType": "address",
          "name": "identityAddress",
          "type": "address"
        },
        {
          "indexed": false,
          "internalType": "string",
          "name": "name",
          "type": "string"
        },
        {
          "indexed": false,
          "internalType": "string",
          "name": "email",
          "type": "string"
        }
      ],
      "name": "IdentityRegistered",
      "type": "event"
    },
    {
      "anonymous": false,
      "inputs": [
        {
          "indexed": true,
          "internalType": "address",
          "name": "identityAddress",
          "type": "address"
        }
      ],
      "name": "IdentityVerified",
      "type": "event"
    },
    {
      "anonymous": false,
      "inputs": [
        {
          "indexed": true,
          "internalType": "address",
          "name": "previousOwner",
          "type": "address"
        },
        {
          "indexed": true,
          "internalType": "address",
          "name": "newOwner",
          "type": "address"
        }
      ],
      "name": "OwnershipTransferred",
      "type": "event"
    },
    {
      "inputs": [
        {
          "internalType": "address",
          "name": "_identityAddress",
          "type": "address"
        }
      ],
      "name": "getIdentity",
      "outputs": [
        {
          "internalType": "string",
          "name": "",
          "type": "string"
        },
        {
          "internalType": "string",
          "name": "",
          "type": "string"
        },
        {
          "internalType": "bool",
          "name": "",
          "type": "bool"
        }
      ],
      "stateMutability": "view",
      "type": "function"
    },
    {
      "inputs": [],
      "name": "owner",
      "outputs": [
        {
          "internalType": "address",
          "name": "",
          "type": "address"
        }
      ],
      "stateMutability": "view",
      "type": "function"
    },
    {
      "inputs": [
        {
          "internalType": "string",
          "name": "_name",
          "type": "string"
        },
        {
          "internalType": "string",
          "name": "_email",
          "type": "string"
        }
      ],
      "name": "registerIdentity",
      "outputs": [],
      "stateMutability": "nonpayable",
      "type": "function"
    },
    {
      "inputs": [],
      "name": "renounceOwnership",
      "outputs": [],
      "stateMutability": "nonpayable",
      "type": "function"
    },
    {
      "inputs": [
        {
          "internalType": "address",
          "name": "newOwner",
          "type": "address"
        }
      ],
      "name": "transferOwnership",
      "outputs": [],
      "stateMutability": "nonpayable",
      "type": "function"
    },
    {
      "inputs": [
        {
          "internalType": "address",
          "name": "_identityAddress",
          "type": "address"
        }
      ],
      "name": "verifyIdentity",
      "outputs": [],
      "stateMutability": "nonpayable",
      "type": "function"
    }
  ],
  "bytecode": "0x60806040523480156200001157600080fd5b506040516200109d3803806200109d8339818101604052810190620000379190620001f4565b80600073ffffffffffffffffffffffffffffffffffffffff168173ffffffffffffffffffffffffffffffffffffffff1603620000ad5760006040517f1e4fbdf7000000000000000000000000000000000000000000000000000000008152600401620000a4919062000237565b60405180910390fd5b620000be81620000c660201b60201c565b505062000254565b60008060009054906101000a900473ffffffffffffffffffffffffffffffffffffffff169050816000806101000a81548173ffffffffffffffffffffffffffffffffffffffff021916908373ffffffffffffffffffffffffffffffffffffffff1602179055508173ffffffffffffffffffffffffffffffffffffffff168173ffffffffffffffffffffffffffffffffffffffff167f8be0079c531659141344cd1fd0a4f28419497f9722a3daafe3b4186f6b6457e060405160405180910390a35050565b600080fd5b600073ffffffffffffffffffffffffffffffffffffffff82169050919050565b6000620001bc826200018f565b9050919050565b620001ce81620001af565b8114620001da57600080fd5b50565b600081519050620001ee81620001c3565b92915050565b6000602082840312156200020d576200020c6200018a565b5b60006200021d84828501620001dd565b91505092915050565b6200023181620001af565b82525050565b60006020820190506200024e600083018462000226565b92915050565b610e3980620002646000396000f3fe608060405234801561001057600080fd5b50600436106100625760003560e01c80630be8293f146100675780632fea7b8114610083578063715018a6146100b55780638da5cb5b146100bf578063b5b90fd9146100dd578063f2fde38b146100f9575b600080fd5b610081600480360381019061007c919061086c565b610115565b005b61009d60048036038101906100989190610942565b610215565b6040516100ac93929190610a09565b60405180910390f35b6100bd6103c3565b005b6100c76103d7565b6040516100d49190610a5d565b60405180910390f35b6100f760048036038101906100f29190610942565b610400565b005b610113600480360381019061010e9190610942565b610539565b005b604051806060016040528083815260200182815260200160001515815250600160003373ffffffffffffffffffffffffffffffffffffffff1673ffffffffffffffffffffffffffffffffffffffff16815260200190815260200160002060008201518160000190816101879190610c8e565b50602082015181600101908161019d9190610c8e565b5060408201518160020160006101000a81548160ff0219169083151502179055509050503373ffffffffffffffffffffffffffffffffffffffff167fdc8c7948efd57970d2239c1bd917b1aacccb1af7b9d31499bb5ed1f80a7925278383604051610209929190610d60565b60405180910390a25050565b606080600080600160008673ffffffffffffffffffffffffffffffffffffffff1673ffffffffffffffffffffffffffffffffffffffff16815260200190815260200160002060405180606001604052908160008201805461027590610aa7565b80601f01602080910402602001604051908101604052809291908181526020018280546102a190610aa7565b80156102ee5780601f106102c3576101008083540402835291602001916102ee565b820191906000526020600020905b8154815290600101906020018083116102d157829003601f168201915b5050505050815260200160018201805461030790610aa7565b80601f016020809104026020016040519081016040528092919081815260200182805461033390610aa7565b80156103805780601f1061035557610100808354040283529160200191610380565b820191906000526020600020905b81548152906001019060200180831161036357829003601f168201915b505050505081526020016002820160009054906101000a900460ff1615151515815250509050806000015181602001518260400151935093509350509193909250565b6103cb6105bf565b6103d56000610646565b565b60008060009054906101000a900473ffffffffffffffffffffffffffffffffffffffff16905090565b6104086105bf565b6000600160008373ffffffffffffffffffffffffffffffffffffffff1673ffffffffffffffffffffffffffffffffffffffff168152602001908152602001600020600001805461045790610aa7565b905003610499576040517f08c379a000000000000000000000000000000000000000000000000000000000815260040161049090610de3565b60405180910390fd5b60018060008373ffffffffffffffffffffffffffffffffffffffff1673ffffffffffffffffffffffffffffffffffffffff16815260200190815260200160002060020160006101000a81548160ff0219169083151502179055508073ffffffffffffffffffffffffffffffffffffffff167f02f93fdaafad8edad1ca75101b1fbda62e64ab9afc26d0ea801ccf6ef02c09ab60405160405180910390a250565b6105416105bf565b600073ffffffffffffffffffffffffffffffffffffffff168173ffffffffffffffffffffffffffffffffffffffff16036105b35760006040517f1e4fbdf70000000000000000000000000000000000000000000000000000000081526004016105aa9190610a5d565b60405180910390fd5b6105bc81610646565b50565b6105c761070a565b73ffffffffffffffffffffffffffffffffffffffff166105e56103d7565b73ffffffffffffffffffffffffffffffffffffffff16146106445761060861070a565b6040517f118cdaa700000000000000000000000000000000000000000000000000000000815260040161063b9190610a5d565b60405180910390fd5b565b60008060009054906101000a900473ffffffffffffffffffffffffffffffffffffffff169050816000806101000a81548173ffffffffffffffffffffffffffffffffffffffff021916908373ffffffffffffffffffffffffffffffffffffffff1602179055508173ffffffffffffffffffffffffffffffffffffffff168173ffffffffffffffffffffffffffffffffffffffff167f8be0079c531659141344cd1fd0a4f28419497f9722a3daafe3b4186f6b6457e060405160405180910390a35050565b600033905090565b6000604051905090565b600080fd5b600080fd5b600080fd5b600080fd5b6000601f19601f8301169050919050565b7f4e487b7100000000000000000000000000000000000000000000000000000000600052604160045260246000fd5b61077982610730565b810181811067ffffffffffffffff8211171561079857610797610741565b5b80604052505050565b60006107ab610712565b90506107b78282610770565b919050565b600067ffffffffffffffff8211156107d7576107d6610741565b5b6107e082610730565b9050602081019050919050565b82818337600083830152505050565b600061080f61080a846107bc565b6107a1565b90508281526020810184848401111561082b5761082a61072b565b5b6108368482856107ed565b509392505050565b600082601f83011261085357610852610726565b5b81356108638482602086016107fc565b91505092915050565b600080604083850312156108835761088261071c565b5b600083013567ffffffffffffffff8111156108a1576108a0610721565b5b6108ad8582860161083e565b925050602083013567ffffffffffffffff8111156108ce576108cd610721565b5b6108da8582860161083e565b9150509250929050565b600073ffffffffffffffffffffffffffffffffffffffff82169050919050565b600061090f826108e4565b9050919050565b61091f81610904565b811461092a57600080fd5b50565b60008135905061093c81610916565b92915050565b6000602082840312156109585761095761071c565b5b60006109668482850161092d565b91505092915050565b600081519050919050565b600082825260208201905092915050565b60005b838110156109a957808201518184015260208101905061098e565b60008484015250505050565b60006109c08261096f565b6109ca818561097a565b93506109da81856020860161098b565b6109e381610730565b840191505092915050565b60008115159050919050565b610a03816109ee565b82525050565b60006060820190508181036000830152610a2381866109b5565b90508181036020830152610a3781856109b5565b9050610a4660408301846109fa565b949350505050565b610a5781610904565b82525050565b6000602082019050610a726000830184610a4e565b92915050565b7f4e487b7100000000000000000000000000000000000000000000000000000000600052602260045260246000fd5b60006002820490506001821680610abf57607f821691505b602082108103610ad257610ad1610a78565b5b50919050565b60008190508160005260206000209050919050565b60006020601f8301049050919050565b600082821b905092915050565b600060088302610b3a7fffffffffffffffffffffffffffffffffffffffffffffffffffffffffffffffff82610afd565b610b448683610afd565b95508019841693508086168417925050509392505050565b6000819050919050565b6000819050919050565b6000610b8b610b86610b8184610b5c565b610b66565b610b5c565b9050919050565b6000819050919050565b610ba583610b70565b610bb9610bb182610b92565b848454610b0a565b825550505050565b600090565b610bce610bc1565b610bd9818484610b9c565b505050565b5b81811015610bfd57610bf2600082610bc6565b600181019050610bdf565b5050565b601f821115610c4257610c1381610ad8565b610c1c84610aed565b81016020851015610c2b578190505b610c3f610c3785610aed565b830182610bde565b50505b505050565b600082821c905092915050565b6000610c6560001984600802610c47565b1980831691505092915050565b6000610c7e8383610c54565b9150826002028217905092915050565b610c978261096f565b67ffffffffffffffff811115610cb057610caf610741565b5b610cba8254610aa7565b610cc5828285610c01565b600060209050601f831160018114610cf85760008415610ce6578287015190505b610cf08582610c72565b865550610d58565b601f198416610d0686610ad8565b60005b82811015610d2e57848901518255600182019150602085019450602081019050610d09565b86831015610d4b5784890151610d47601f891682610c54565b8355505b6001600288020188555050505b505050505050565b60006040820190508181036000830152610d7a81856109b5565b90508181036020830152610d8e81846109b5565b90509392505050565b7f4964656e7469747920646f6573206e6f74206578697374000000000000000000600082015250565b6000610dcd60178361097a565b9150610dd882610d97565b602082019050919050565b60006020820190508181036000830152610dfc81610dc0565b905091905056fea26469706673582212201aaddfccb3454bb8f7ea8c03ad799f41eeaaaa95cbc9089688f5018c6407062064736f6c63430008140033",
  "linkReferences": {},
  "deployedLinkReferences": {}
}